:02000000392F96
:100E72008301422F831605160614831205120610EB
:100E820008003B274A27A030C32794275B277327F4
:100E9200492F533005120610831606140516F0006A
:100EA200F00B512F5330831603130512F000F00B91
:100EB200582F08002930831603130610F000F00B98
:100EC200602F64002930831603130512F000F00B23
:100ED200682F64005330831603130614F000F00BDE
:100EE200702F08002930831603130610F000F00B50
:100EF200782F64002930831603130512F000F00BDB
:100F0200802F64002930831603130614F000F00BBF
:100F1200882F64002930831603130516F000F00BA6
:100F2200902F64000800F101F2015330831603137D
:100F320006100516F000F00B9C2F293083160313C0
:100F42000614F000F00BA32F640000308312031389
:100F5200051A0130F0007208073C013EB22F03105F
:100F6200F00DFF3E031DB02F7008F1042930F00090
:100F7200F00BB92F64000830F20A7202031C962F9C
:100F820071080800F100F2012930831603130610DC
:100F9200F000F00BCA2F64007108F000720AD32F20
:100FA2000310F00DFF3E031DD12FF01FDC2F83161F
:100FB20003130516DF2F8316031305122930F000E1
:100FC200F00BE12F64005330831603130614F00074
:100FD200F00BE92F0830F20A7202031CC52F5330BE
:100FE2008316031306100516F000F00BF62F53308C
:0E0FF200831603130614F000F00BFD2F080009
:02400E0062FF4F
:00000001FF
