:040000000BEF00F012
:100008001B82FACF02F0FBCF03F00DED00F0C9EF31
:1000180000F00600E9CF04F0EACF05F0E1CF06F0E2
:10002800E2CF07F0D9CF08F0DACF09F0F3CF0AF022
:10003800F4CF0BF0F6CF0CF0F7CF0DF0F8CF0EF0B1
:10004800F5CF0FF0F2A248D0000E116E000E106E20
:1000580011BE06D011503FE1050E105CD8B03BD060
:10006800818A000E136E000E126E13BE06D0135056
:1000780013E1140E125CD8B00FD0270E016EF50EE6
:10008800E82EFED7012EFCD700F0124A132A13BE21
:10009800F4D7135001E1EDD7819A000E156E000ECA
:1000A800146E15BE06D015500FE1140E145CD8B0AE
:1000B8000BD0270E016EF50EE82EFED7012EFCD7C9
:1000C80000F0144A152AEDD7104A112A11BEC8D7D4
:1000D800115001E1C1D7F2920FC0F5FF0EC0F8FF31
:1000E8000DC0F7FF0CC0F6FF0BC0F4FF0AC0F3FF0A
:1000F80009C0DAFF08C0D9FF07C0E2FF06C0E1FF68
:1001080005C0EAFF04C0E9FF03C0FBFF02C0FAFF15
:100118001B921100C2EC00F08188000E186E000ED0
:10012800176E18BE06D0185012E1140E175CD8B01E
:100138000ED0820E166EDE0EE82EFED7162EFCD7D7
:10014800174A182A18BEF5D7185001E1EED781983A
:10015800000E1A6E000E196E1ABE06D01A50DCE197
:10016800140E195CD8B0D8D7820E166EDE0EE82EA3
:10017800FED7162EFCD7194A1A2AEED70F0E936E01
:10018800F292F28EF288F18C12001B901B92000101
:040198008EEF00F0F6
:020000040030CA
:0E000000FF02191EFF8185FF0FC00FE00F40A9
:00000001FF
